:400000000080002011000000351100003511000008B5044B1A6803F53F5302331A6001F091F800BFFA46004010B5054C237833B9044B13B10448AFF300800123237010BD61
:400040004885FF1F00000000C8170000084B10B51BB108490848AFF300800848036803B910BD074B002BFBD0BDE81040184700BF000000004C85FF1FC8170000C880FF1F3C
:40008000000000002DE9F04784B001F0FBF862B63C2000F087FC00F0E9FB00F019FC01220A21084600F0E0FC00F012FC4FF4FA7001F0EEFA00F0DAFB00F00AFC00240EE062
:4000C00000F096FC431E012200921BB222460021084600F0EFFC00F0FBFB043424B200F081FC8442ECDB00240EE000F07BFC421E01230093234612B20021084600F0DAFC09
:4001000000F0E6FB043424B200F072FC8442ECDB40F6B83001F0BCFA00F0A8FB00F0D8FB012000F071FC012000F076FC0021084600F064FC002406E00A2C02D0E0B200F086
:40014000BBFE013424B2A72CF6DD00F0C1FB40F6B83001F09DFA00F089FB00F0B9FB0021084600F04BFC022000F04EFC382000F0A3FE032000F048FC382000F09DFE042062
:4001800000F042FC382000F097FE00F0A1FB40F6B83001F07DFA00F069FB00F099FB012000F032FC012000F037FC0021084600F025FCD14800F0CAFED04800F0C7FE00F0B9
:4001C00087FB40F6B83001F063FA00F04FFB00F07FFB012000F018FC012000F01DFC0021084600F00BFC012404E0C54800F0AEFE013424B20F2CF8DD00F06AFB0723262224
:400200001946002000F090FB4FF4FA6001F040FA00F07AFB06232A220421022000F084FB4FF4FA6001F034FA00F06EFB40F6B83001F02EFA00F01AFB00F04AFB002415E0CD
:4002400000F0D0FB0746A5B26E00B6B200F0D0FB831BBA1B012100911BB212B22146204600F094FC00F034FBAC1C24B200F0C0FB00EBD07040F34F008442E1DB40F6B830D5
:4002800001F006FA00F0F2FA00F022FB0125002419E000F0A7FB8046A6B27700BFB200F0A7FBC31BC7EB080205F0010100911BB212B22146204600F095FC00F009FB0135CC
:4002C000EDB2F41C24B200F093FB00EBD07040F34F008442DDDB40F6B83001F0D9F900F0C5FA00F0F5FA002414E000F07BFB054600F07EFB00EBD07005EBD575012322463E
:4003000040F34F0145F34F0000F0A0FC00F0E0FA023424B200F06CFB8442E6DB40F6B83001F0B6F900F0A2FA00F0D2FA002438E000F058FB074600F05BFB0646A4B200F0C9
:4003400051FB804600F054FB814600F04BFB054600F04EFB09EBD97904EB690308EBD878C4EB680206EBD676C4EB660107EBD7770126029600EBD07004EB600636B201965D
:4003800005EBD57504EB65052DB200951BB212B209B247F34F0000F0F5FC00F099FA053424B2254600F01EFB064600F021FB864205DA00F017FB00EBD070401004E000F02A
:4003C00017FB00EBD0704010A842B1DC40F6B83001F05EF900F04AFA00F07AFA002659E0F0B200F01FFB00243DE000F0FBFA074600F0FEFA8046A4B200F0F4FA814600F0E4
:40040000F7FA824600F0EEFA054600F0F1FA0AEBDA7A04EB6A0309EBD979C4EB690208EBD878C4EB680107EBD7774FF0010ECDF808E000EBD07004EB600000B2019005EBBD
:40044000D57504EB65052DB200951BB212B209B247F34F0000F096FC00F03AFAC82001F017F9053424B2254600F0BCFA074600F0BFFA874205DA00F0B5FA00EBD070401029
:4004800004E000F0B5FA00EBD0704010A842ACDC013636B2032EA3DD40F6B83001F0F8F8012000F003FA4FF47A7001F0F1F84FF4807407E0E0B200F0E7F90A2001F0E8F86D
:4004C000013C24B2002CF5DA002000F0EFF94FF47A7001F0DDF8002407E0E0B200F0D4F90A2001F0D5F8013424B2FF2CF5DD40F6B83001F0CDF8CEE5CC170000DC1700005C
:40050000F817000083B27F2B3CD800293ADB3F2938DC012A03D09AB1022A23D070471A4A0B46002900DACB1DDB1000EBC31001F00701012303FA01F1135C194311547047A4
:40054000114A0B46002900DACB1DDB1000EBC31001F00701012303FA01F1135C23EA010111547047084A0B46002900DACB1DDB1000EBC31001F00701012303FA01F1135CE3
:4005800059401154704700BFCD80FF1FF0B5BDF81440904267D10D46002900DACD1DED1000EBC510444F07441846002B00DAD81DC01002EBC012404810443A4650E0BA425A
:4005C00018D13E4D0D4003D5013D65F007050135EEB2F5186D1AEDB2062D00D90725AD1B01354FF0010E0EFA05F5013D05FA06F6F6B20EE082420CD1304D1D4003D5013DD4
:4006000065F0070501352DB2012606FA05F56E1EF6B2BA4201D0824212D1012C03D034B1022C09D01BE015783543157017E0157825EA0605157012E01578754015700EE040
:40064000012C03D02CB1022C06D008E0FF25157005E00025157002E01578ED43157080328242ACD9F0BD0B46002900DACB1DDB1000EBC313104D2B44121A1A4401F0070176
:40068000012000FA01F1CDB212E0012C03D034B1022C09D00BE018782843187007E0187820EA0100187002E018786840187001339342EAD9F0BD00BFCD80FF1F070000808C
:4006C000B1F90020154B1B78022B0CD0032B19D0012B21D1B0F900300B80114B1B889A1A013A02807047B0F900200D4B1B889B1A013B0380B1F900200A4B1B889B1A013B89
:400700000B80704710B4B0F90040064B1B881B1B013B0B80028010BC704700BF7885FF1F7685FF1F7A85FF1F10B584B0ADF80E00ADF80C10ADF80A20ADF80830904203D006
:4007400009B21BB2994271D1394B1B78012B01D0032B1AD1002869DB364BB3F90030984264DA002A62DB9A4260DABDF90C30002B5CDB314AB2F90020934257DABDF90830BB
:40078000002B53DB9A421ADC50E0BDF90C30002B4CDB2849B1F900108B4247DABDF90830002B43DB994241DD00283FDB224BB3F9003098423ADA002A38DB9A4236DA03A903
:4007C0000DF10E00FFF77CFF02A90DF10A00FFF777FFBDF90E30BDF90A20934205D1BDF90800BDF90C10884207DBBDF90C00BDF9081088420DD193420BDDADF80E20ADF835
:400800000A30BDF90C30BDF80820ADF80C20ADF80830BDF90830BDF90A20BDF90C10BDF90E00BDF818400094FFF7B0FE04B010BD7885FF1F7A85FF1F7685FF1FF8B507468C
:400840000E460021084B187800F098FE0024FF2504E0385D00F0EEFE05460134B442F8DB00F0CCFE2846F8BD6485FF1F10B5054C4FF480620021601C00F095FF402323707E
:4008800010BD00BFCC80FF1F00B583B000238DF8043081238DF805308DF80600032101A8FFF7CCFF03B05DF804FB00BF00B583B000238DF8043008B1A72300E0A6238DF8CC
:4008C0000530022101A8FFF7B9FF03B05DF804FB00B583B00A4B186800909A889B79ADF804208DF8063007216846FFF7A7FF40F201410448FFF7A2FF03B05DF804FB00BFAC
:4009000000180000CC80FF1F00B583B000238DF804302E238DF80530022101A8FFF78EFF03B05DF804FB00BF10B584B000248DF804408DF805208DF806408DF807008DF8E5
:4009400008308DF809108DF80A40FF238DF80B302F238DF80C30092101A8FFF76FFF04B010BD00BF0A4B18800A4B19800A4B58809980002209490A70DA801A8101229A7233
:400980004FF6FF719981D981054B1A70704700BF7685FF1F7A85FF1F6485FF1F7885FF1F7C85FF1F30B589B00C4B187040218020FFF7D8FF01AC0A4D55F8080F6968AA6831
:4009C000EB680FC42869696903C42B8B23801A2101A8FFF733FF09B030BD00BF6485FF1F00180000014BB3F9020070476485FF1F014BB3F9040070476485FF1F014BD880A8
:400A0000198170476485FF1F08B90120FFE7014B987270476485FF1F014B9881D88170476485FF1F00F003000B4B1870032812D8DFE800F0020A020A084B094A12885A8037
:400A4000084A12889A807047044B064A12885A80034A12889A8070477885FF1F6485FF1F7685FF1F7A85FF1F10B582B0ADF80600ADF80410002819DB0D4BB3F9023098420F
:400A800014DA0BB2002B11DB0949B1F904108B420CDA144601A90DF10600FFF711FE2246BDF90410BDF90600FFF72CFD02B010BD6485FF1F2DE9F04F85B005460E4617468B
:400AC000BDF838200292B84201D0994207D1029A00923A4631462846FFF726FE52E0C1EB0308B8F1000FB8BFC8F10008C0EB0709B9F1000FB8BFC9F10009C84504DD3A4635
:400B00001F4613460D460646BD4205DD32461E4613462A463D461746C5EB070B1FFA8BFB0FFA8BF4C6EB030ABAF1000FB8BFCAF1000A04EBD47464109E4202DA0123039334
:400B40001EE04FF0FF3303931AE0C84505DD029A29463046FFF788FF04E0029A31462846FFF782FFCAEB0404A3B21CB2002C05DA039A164436B20BEB030424B201352DB2FB
:400B8000BD42E2DD05B0BDE8F08F00BF2DE9F04182B080460E461C46BDF820700244551E2DB200970B462A46FFF784FF3444013C24B2009723462A4621464046FFF77AFFE5
:400BC00000972346424631464046FFF773FF009723462A4631462846FFF76CFF02B0BDE8F08100BF2DE9F04383B005460E4617469846BDF8289093420FDC0C461EE006EB07
:400C00000803013BCDF800901BB2224631462046FFF750FF013424B200E00446EB199C42EDDB0FE0EA19013ACDF80090234612B221462846FFF73EFF013424B206EB080324
:400C40009C42EFDB03B0BDE8F08300BF2DE9F04F87B082460E4602921F46019395B2C5F1010424B2C5EBC53253001AB205921FFA81FB05EB0B013A4609B2FFF7F5FEC5EB73
:400C80000B013A4609B25046FFF7EEFE1FFA8AFA05EB0A003A46314600B2FFF7E5FEC5EB0A003A46314600B2FFF7DEFE4FF000090123039360E0002C0ADB029B013B1BB22E
:400CC0000293059B02339BB21AB205921C4424B209F10105ADB20FFA85F9039B02339BB21AB203921C4424B20AEB05031BB2BDF808600BEB06080FFA88F8019A41460493DA
:400D00001846FFF7B1FEC5EB0A073FB2019A41463846FFF7A9FEC6EB0B080FFA88F8019A41460498FFF7A0FE019A41463846FFF79BFE0AEB06073FB20BEB05080FFA88F874
:400D4000019A41463846FFF78FFEC6EB0A0636B2019A41463046FFF787FEC5EB0B052DB2DDF80480424629463846FFF77DFE424629463046FFF778FE029B99459BDB07B035
:400D8000BDE8F08F2DE9F04782B00746884691469A46BDF92850BDF92C60BDF830400094FFF788FE009433462A4651464846FFF781FE009443463A4631462846FFF77AFE12
:400DC00002B0BDE8F08700BF2DE9F04F85B0BDF838B09DF83C60364CB4F90240844263DD334CB4F904408C425EDD06EB46056C000444012C58D401EBC604012C54D49846EC
:400E000003928A46814600274CE0052F08D0039B03EB83033B44274A134493F8245000E0002500243AE015F0010F19D0012E09D104EB0A0107EB0900424609B200B2FFF7A5
:400E400013FE28E0B0B232B204FB00A107FB0090CDF80080134609B200B2FFF7C3FE1AE0D84518D0012E09D104EB0A0107EB09005A4609B200B2FFF7F7FD0CE0B0B232B2F9
:400E800004FB00A107FB0090CDF800B0134609B200B2FFF7A7FE6D08013464B2072CC2DD01377FB2052FB0DD05B0BDE8F08F00BF6485FF1F001800000A2808D11A4B997A34
:400EC0001A8902EBC1021A810022DA8070470D28FCD030B583B00246134CE389B4F90810B4F90600A57A0195A5890095FFF76CFFA27A91B201EB41035800E38803441BB2EE
:400F0000E3800A48007868B1A2EB82025000B4F902201044834205DD228902EBC10121810022E28003B030BD6485FF1F7C85FF1F70B5064600F03FFC0546002403E0305D7F
:400F4000FFF7BAFF0134AC42F9D370BD08B5FFF7EFFF0A20FFF7B0FF08BD00BFFEE700BFF0B40022174611E050F82760F3B226F0FF0608E001EB420511F812406D78A55516
:400F80000132013BDBB2002BF4D101370B2FEBD9F0BC7047064B1B78DBB203F00701054A11701B09013213704422034B1A707047CF0100496E5800407658004008B50A4667
:400FC000002100F0F0FB08BD08B500F0E1FB08BD38B5042220492148FFF7F6FF0222204B1A7008224FF040231A70032103F5007319701C4B1B78DBB21B490B701B4B1A8025
:4010000041F25122023B1A80002419250CE0184B1B7803F0010343EA440404F003044FF4F07000F079FB013D0DB1032CEFD115B90320FFF793FF0F4B4FF480721A800722CB
:401040001A7000220C490A704820023108701A700222033B1A7038BD9C000048004100400043004008010049A14600402242004025420040044000400640004038B572B6AC
:4010800000240CE01F4D630019194A0011462A44084691882858FFF791FF0134E4B2082CF0D919494FF09040FFF75AFF174A137843F0020313701032137843F002031370EC
:4010C000082213491348FFF77FFF082212491348FFF77AFF124A137843F008031370114C61232370FFF774FF8123237001220E4B1A70FFF74FFF0E220C490D48FFF764FF13
:4011000038BD00BF201D000030000048035001408C000048C25100409400004812510040224300400048004004000840A0430040B043004008B500F0FFFA03680C2B00D124
:40114000FEE7FEE708B5104E104D16E029686B68AC68002204E051F8040B43F8040B0432A242F8D1E868002203E0002143F8041B04328242F9D11035013E002EE6D100F047
:40118000E1FAFEF77FFFFEE7010000007C1D000008B5104A104B1A60104A136843F40073136000230AE0032B03D80D4A52F8231000E00C490C4A42F8231001332F2BF2D949
:4011C0000A4B1A780A4B1A70074A0A4B1A60FFF755FF08BD0004FA050CED00E014ED00E000000000351100000080FF1FBC760040C080FF1F08ED00E010B50222114B1A70E5
:4012000081220E3B1A70082202331A70042211331A70002401331C704FF400420A4B1A6007210F2000F05EFA08490F2000F046FA1022074B1A70074B1C70074B1C70074BB8
:401240001C7010BDD649004080E100E0AD1200007D85FF1F8085FF1F8285FF1F8385FF1F08B500F061FA064A137843F0040313701032137843F00403137000F059FA08BDF6
:40128000A543004008B5074B1B7823B9FFF7B4FF0122044B1A70FFF7E3FF4FF40042024B1A6008BD7485FF1F00E100E038B5A54B1C78A54B1B7813F0400F00F03A81E4B29B
:4012C00014F0010F00F01D819F4B1B78453B052B00F21481DFE813F006008200120112010600DF0004F0DF0504F00A04082C42D1954B1B78DBB2452B35D1944B1B7813F02F
:40130000FF0F10D0924B1B681B78DBB2914A137004228C4B1A7001228F4B1A7046228A4B1A702C46EDE08D4B1B7813F0020F0DD08B4A137843F00A0313706022824B1A7075
:401340004FF40042874B1A602C46DAE0864A137843F0100313701022844B1A700422023B1A702C46CDE00022764B1A704A22764B1A702C46C5E00A2C2BD1794A137843F0C7
:40138000A0031370754B1B7813F0020F14D06E4B1B7813F0080F01D0092300E00A23704A11780B4313706022674B1A704FF400426C4B1A602C46A4E06B4A137843F0100348
:4013C00013701022694B1A700422023B1A702C4697E0002000F05AF92C4692E014F0020F36D15D4B1A78D2B2584B1B78DBB29A4210D2594A1378DBB255490968CB5CDBB204
:4014000054490B7004214F4B197013780133DBB2137076E0514B1B7813F0020F0CD0504A137843F00A0313706022474B1A704FF400424C4B1A6064E04B4A137843F0100342
:4014400013701022494B1A700422023B1A7058E0424B1B7813F0020F0CD0414A137843F09A0313706022384B1A704FF400423D4B1A6046E03C4A137843F0100313701022B3
:401480003A4B1A700422023B1A70354A137843F09003137035E0364A1378DBB2354908682C490978C9B2C15413780133DBB213701278D2B2304B1B78DBB29A4203D2102261
:4014C000204B1A701DE0254B1B7813F0020F0CD0234A137843F00903137060221A4B1A704FF400421F4B1A600BE01F4A137843F0100313700022134B1A7002E0002000F0CF
:40150000C5F814F0200F1CD00F4B1B7813F0080F01D0012300E00223114A11780B431370114A137803F0EF0313701022064B1A7038BD054B1B7813F0100F02D11022024B72
:401540001A7038BDD74900407D85FF1F8885FF1F8C85FF1FD84900408385FF1F8185FF1F8085FF1F80E100E0D6490040D94900408285FF1F8485FF1F9085FF1F1A4B1B78CB
:40158000DBB2102B29D1194B1B7813F0080F26D14FF40042164B1A604000C0B229B140F001004922104B1A7002E045220E4B1A70104B1870012201331A700F4B1B7813F014
:4015C000010FFAD00C4B1B7803F00A030A2B08D11022054B1A700320704702207047012070470020704700BF7D85FF1FD949004080E100E0D8490040D74900400A4B1B7880
:4016000013F0040F0ED01023074A13700421023A1170064A1370064B1B7813F0210FFAD00020704702207047D94900407D85FF1FD7490040114B1B7813F0040F1BD0104B3C
:4016400018700422013B1A7046220E4B1A700E4B1B7813F0010FFAD00B4B1B7813F0020F04D16022074B1A70002070476022054B1A70032070470220704700BFD9490040AB
:40168000D84900407D85FF1FD749004001BE704710B5044605E0084B186800F03DF8A4F50044B4F5004FF6D8034B586800FB04F000F032F810BD00BFD084FF1F70B50446C0
:4016C0000E46074B1D681F2802D90020FFF7DEFF04F01F04103455F8240045F8246070BD08ED00E038B504460D46072902D90020FFF7CCFF1F2C02D90020FFF7C7FF04F0AF
:401700001F0000F1604000F564406D01EDB2057038BD00BF000000000230800803D000BF01380046FCD17047EFF3108072B6704780F31088704700BF014B1868704700BFC7
:401740004085FF1F0E4B70B51E460E4C0025E41AA410A54204D056F8253098470135F8E700F0FAFA084B094C1E46E41AA4100025A54204D056F8253098470135F8E770BDDB
:40178000641D0000641D0000641D00006C1D000010B5431E0A44914204D011F8014B03F8014FF8E710BD03460244934202D003F8011BFAE77047034613F8012B002AFBD15B
:4017C000181A01387047000000000000484F4C4120504552524F53202E2E2E0059412045534352494245204C412050534F43203A56202E2E2E0000007363726F6C6C00005C
:401800000021007F2200070000AED580A83FD300408D142000A1C8DA1281CFD9F1DB40A4A6AF000000000000003E5B4F5B3E3E6B4F6B3E1C3E7C3E1C183C7E3C181C577D36
:40184000571C1C5E7F5E1C00183C1800FFE7C3E7FF0018241800FFE7DBE7FF30483A060E2629792926407F050507407F05253F5A3CE73C5A7F3E1C1C08081C1C3E7F142274
:401880007F22145F5F005F5F06097F017F006689956A606060606094A2FFA29408047E040810207E201008082A1C08081C2A08081E101010100C1E0C1E0C30383E383006AE
:4018C0000E3E0E06000000000000005F00000007000700147F147F14242A7F2A12231308646236495620500008070300001C2241000041221C002A1C7F1C2A08083E080816
:4019000000807030000808080808000060600020100804023E5149453E00427F400072494949462141494D331814127F1027454545393C4A4949314121110907364949496E
:4019400036464949291E0000140000004034000000081422411414141414004122140802015909063E415D594E7C1211127C7F494949363E414141227F4141413E7F4949C9
:4019800049417F090909013E414151737F0808087F00417F41002040413F017F081422417F404040407F021C027F7F0408107F3E4141413E7F090909063E4151215E7F091B
:4019C000192946264949493203017F01033F4040403F1F2040201F3F4038403F631408146303047804036159494D43007F4141410204081020004141417F04020102044055
:401A000040404040000307080020545478407F284444383844444428384444287F385454541800087E090218A4A49C787F0804047800447D40002040403D007F10284400E9
:401A400000417F40007C047804787C080404783844444438FC1824241818242418FC7C08040408485454542404043F44243C4040207C1C2040201C3C4030403C4428102843
:401A8000444C9090907C4464544C4400083641000000770000004136080002010204023C2623263C1EA1A161123A4040207A385454555921555579412254547842215554EF
:401AC000784020545579400C1E5272123955555559395454545939555454580000457C410002457D420001457C407D1211127DF0282528F07C545545002054547C547C0AE9
:401B0000097F4932494949323A4444443A324A4848303A4141217A3A42402078009DA0A07D3D4242423D3D4040403D3C24FF2424487E4943662B2FFC2F2BFF0929F620C084
:401B4000887E090320545479410000447D413048484A32384040227A007A0A0A727D0D19317D2629292F28262929292630484D4020380808080808080808382F10C8ACBA16
:401B80002F102834FA00007B000008142A142222142A1408AA005500AAAA55AA55AA000000FF00101010FF00141414FF001010FF00FF1010F010F0141414FC001414F700DE
:401BC000FF0000FF00FF1414F404FC141417101F10101F101F1414141F00101010F0000000001F101010101F10101010F010000000FF101010101010101010FF1000000019
:401C0000FF140000FF00FF00001F10170000FC04F414141710171414F404F40000FF00F714141414141414F700F7141414171410101F101F141414F4141010F010F0000046
:401C40001F101F0000001F14000000FC140000F010F01010FF10FF141414FF141010101F00000000F010FFFFFFFFFFF0F0F0F0F0FFFFFF0000000000FFFF0F0F0F0F0F38EE
:401C800044443844FC4A4A4A347E02020606027E027E0263554941633844443C04407E201E2006027E020299A5E7A5991C2A492A1C4C7201724C304A4D4D303048784830D6
:401CC000BC625A463D3E494949007E0101017E2A2A2A2A2A44445F444440514A444040444A51400000FF0103E080FF000008086B6B083612362436060F090F060000181847
:401D00000000001010003040FF0101001F01011E00191D1712003C3C3C3C000000000000C84900401900005100401000205100405000F05100401000000001400010001482
:401D40000140000800400140000A004C014000020050014020004300F8B500BFF8BC08BC9E4670474D00000091110000F8B500BFF8BC08BC9E46704729000000901D000049
:401D8000C880FF1F800400005000000000000000000000004000000000000000000000000000000000000000000000000000000000000000000000000000000000000000A9
:401DC00000000000000000000000000000000000000000000000000000000000000000000000000000000000000000000000000000000000000000000000000000000000E3
:401E000000000000000000000000000000000000000000000000000000000000000000000000000000000000000000000000000000000000000000000000000000000000A2
:401E40000000000000000000000000000000000000000000000000000000000000000000000000000000000000000000000000000000000000000000000000000000000062
:401E80000000000000000000000000000000000000000000000000000000000000000000000000000000000000000000000000000000000000000000000000000000000022
:401EC00000000000000000000000000000000000000000000000000000000000000000000000000000000000000000000000000000000000000000000000000000000000E2
:401F000000000000000000000000000000000000000000000000000000000000000000000000000000000000000000000000000000000000000000000000000000000000A1
:401F40000000000000000000000000000000000000000000000000000000000000000000000000000000000000000000000000000000000000000000000000000000000061
:401F80000000000000000000000000000000000000000000000000000000000000000000000000000000000000000000000000000000000000000000000000000000000021
:401FC00000000000000000000000000000000000000000000000000000000000000000000000000000000000000000000000000000000000000000000000000000000000E1
:4020000000000000000000000000000000000000000000000000000000000000000000000000000000000000000000000000000000000000000000000000000000000000A0
:402040000000000000000000000000000000000000000000000000000000000000000000000000000000000000000000000000000000000000000000000000000000000060
:402080000000000000000000000000000000000000000000000000000000000000000000000000000000000000000000000000000000000000000000000000000000000020
:4020C00000000000000000000000000000000000000000000000000000000000000000000000000000000000000000000000000000000000000000000000000000000000E0
:40210000000000000000000000000000000000000000000000000000000000000000000000000000000000000000000000000000000000000000000000000000000000009F
:40214000000000000000000000000000000000000000000000000000000000000000000000000000000000000000000000000000000000000000000000000000000000005F
:402180000000000000000000000000000000000000000000000000000000E02EC05D00001800000000366E0100000000000000000000000000000000000000000000000037
:4021C0000000000000000000561D0000000000000000000000000000000000000000000000000000000000000000000000000000000000000000000000000000000000006C
:402200000000000000000000E084FF1F000000000000000000000000000000000000000000000000000000000000000000000000000000000000000000000000000000001C
:40224000000000000000000000000000000000000000000000000000000000000000000000000000000000000000000000000000000000000000000000000000000000005E
:40228000000000000000000000000000000000000000000000000000000000000000000000000000000000000000000000000000000000000000000000000000000000001E
:4022C00000000000000000000000000000000000000000000000000000000000000000000000000000000000000000000000000000000000000000000000000000000000DE
:40230000000000000000000000000000000000000000000000000000000000000000000000000000000000000000000000000000000000000000000000000000000000009D
:020000040003F7
:0200000480007A
:4000000001520040031501400117014001190140031B014002420140014301400348014010490140084C0140064D0140015101406002E008E401EA09E204E204E008E4011A
:40004000EA093E10CE20961082209610E2201220164072207F02822086409A20A302AA10AF02C430DC80DE20E010E480EA901080132015087B107F408080C40EDE03831008
:4000800087409780A710AB20AD0403C0000003000300000000030300000000000100140100000000000000000000000000000000000000000000000000000000000000004A
:4000C0000000000000000000000000000000000000000000000000000000000000000000000000000000000000000000000000000000000000000000000000000000000000
:4001000000000000000000000000000000000000000000000000000000000000000000000000000000000000000000000000000000000000000000000000000000000000BF
:40014000000000000000000000000000000000000000000000000000000000000000000000000000000000000000000000000000000000000000000000000000000000007F
:40018000000000000000000000000000000000000000000000000000000000000000000000000000000000000000000000000000000000000000000000000000000000003F
:0200000490006A
:0400000000004005B7
:0200000490105A
:04000000BC90ACAF55
:0200000490303A
:020000000B8F64
:0200000490402A
:4000000000000000000000000000000000000000000000000000000000000000000000000000000000000000000000000000000000000000000000000000000000000000C0
:400040000000000000000000000000000000000000000000000000000000000000000000000000000000000000000000000000000000000000000000000000000000000080
:400080000000000000000000000000000000000000000000000000000000000000000000000000000000000000000000000000000000000000000000000000000000000040
:4000C0000000000000000000000000000000000000000000000000000000000000000000000000000000000000000000000000000000000000000000000000000000000000
:0200000490501A
:0C00000000012E16106900012E211BF8D3
:00000001FF