:400000000010002011000000852000008520000080B500AF02F03AF880B500AF124B124A12688021C9020A431A60182002F0C4FA0D4B0D4A12680D490A401A600C4B0D4A0A
:400040001A600D4B10221A600C4B802212061A60054B00221A600A4B0A4A1A600A4B00221A60C046BD4680BD00010B40FFFFFBFF04010B40060000800C02024008010B4073
:4000800000000240020000800C020B4080B582B000AF72B6FB1D00221A7022E0FB1D1A7813005B009B185B00254A9B183B603B681A78597809020A43997809040A43DB7820
:4000C0001B06134318003B681A795B791B0213439BB2190001F0C0FFFB1D1A78FB1D01321A70FB1D1B78012BD8D9164BEE2212041A60154BEE2212021A60144B99221204A8
:400100001A60134B992212041A60124A114B1B78DBB206210B43DBB213700F4B30221A600E4B902292021A600D4BD82212011A60FFF772FF01F0A0FFC046BD4602B080BD32
:4001400038340000000001400C00014000500F4030500F4000700F4000000440080004400803044010B5064C2378002B07D1054B002B02D0044800E000BF0123237010BD08
:40018000E804002000000000EC2E0000084B10B5002B03D00749084800E000BF07480368002B00D110BD064B002BFBD09847F9E700000000EC040020EC2E0000C800002029
:4001C00000000000F0B54F464646C0B487B004AF01F0F2FF62B63C2000F056FB00F06AFC00F0BEFC01222821282000F0D5FF00F0B7FCFA239B00180002F082FB00F05AFCA4
:4002000000F0AEFCBB1D00221A80BB1D00221A8018E000F0CDFE03009BB2013B9BB219B2BB1D00229A5E012300930B000021002001F00CF900F094FCBB1D1B8804339AB23C
:40024000BB1D1A8000F0AAFE03001A00BB1D00215B5E9342DDDBBB1D00221A8018E000F09DFE03009BB2013B9BB21AB2BB1D0021595E012300930B000021002001F0E6F8DA
:4002800000F06EFCBB1D1B8804339AB2BB1D1A8000F08EFE03001A00BB1D00215B5E9342DDDBC04B180002F02BFB00F003FC00F057FC012000F0A0FE012000F0B3FE00219D
:4002C000002000F07FFEBB1D00221A8014E0BB1D00229B5E0A2B06D0BB1D1B88DBB2180001F008FE00E0C046BB1D00229B5E9BB201339AB2BB1D1A80BB1D00229B5EA72BF7
:40030000E5DD00F02DFCA74B180002F0F9FA00F0D1FB00F025FC0021002000F053FE022000F06AFE382001F0E5FD032000F064FE382001F0DFFD042000F05EFE382001F0AC
:40034000D9FD00F00DFC974B180002F0D9FA00F0B1FB00F005FC012000F04EFE012000F061FE0021002000F02DFE8F4B180001F063FE8E4B180001F05FFE00F0F1FB894B06
:40038000180002F0BDFA00F095FB00F0E9FB012000F032FE012000F045FE0021002000F011FEBB1D01221A800BE0814B180001F043FEBB1D00229B5E9BB201339AB2BB1D25
:4003C0001A80BB1D00229B5E0F2BEEDD00F0C8FB072326220721002000F04CFDFA23DB00180002F08DFA00F033FD06232A220421022000F03FFDFA23DB00180002F080FAB8
:4004000000F026FD674B180002F07AFA00F052FB00F0A6FBBB1D00221A8029E000F0BEFD03009AB2BB1D1B88DB189BB2D31A9BB21CB200F0BDFD03009AB2BB1D1B88DB18EA
:400440009BB2D31A9BB21AB2BB1D0021595EBB1D0020185E012300931300220001F01CF900F07EFBBB1D1B8802339AB2BB1D1A8000F09EFD031E00DA01335B101BB2BA1D79
:400480000021525E9A42C9DB464B180002F038FA00F010FB00F064FB7B1D01221A70BB1D00221A8033E000F079FD03009AB2BB1D1B88DB189BB2D31A9BB21CB200F078FD0B
:4004C00003009AB2BB1D1B88DB189BB2D31A9BB21DB27B1D1B789BB2012213409BB2BA1D0021515EBA1D0020105E00932B00220001F068F900F034FB7B1D1A787B1D01325C
:400500001A70BB1D1B8803339AB2BB1D1A8000F04FFD031E00DA01335B101BB2BA1D0021525E9A42BFDB1F4B180002F0E9F900F0C1FA00F015FBBB1D00221A801CE000F080
:400540002DFD031E00DA01335B101CB200F030FD031E00DA01335B1019B2BB1D00229A5E0123200001F0C2F900F0FAFABB1D1B8802339AB2BB1D1A8000F01AFD03001A000F
:40058000BB1D00215B5E9342D9DB064B180002F0B7F900F08FFA00F0E3FABB1D00221A8064E0C046B80B0000F02E0000002F0000102F000000F0F2FC031E00DA01335B100A
:4005C0001DB200F0F5FC031E00DA01335B101BB29AB2BB1D1B88D31A9BB21EB200F0DEFC031E00DA01335B101BB29AB2BB1D1B88D31A9BB21BB2984600F0DAFC031E00DA75
:4006000001335B101BB29AB2BB1D1B88D3189BB21BB2994600F0C2FC031E00DA01335B101BB29AB2BB1D1B88D3189BB21CB200F0BFFC031E00DA01335B101BB29AB2BB1D8B
:400640001B88D3189BB21BB201220292019300944B4642463100280001F0AEFA00F080FABB1D1B8805339AB2BB1D1A80BB1D00241C5F00F093FC03001D0000F099FC03006F
:400680009D4206DA00F08AFC031E00DA01335B1005E000F08DFC031E00DA01335B109C4200DA87E7774B180002F02AF900F002FA00F056FABB1C00221A80BB1C00221A800C
:4006C0008CE0BB1C1B88DBB2180000F0C1FCBB1D00221A805EE000F061FC031E00DA01335B101DB200F064FC031E00DA01335B101BB29AB2BB1D1B88D31A9BB21EB200F0C2
:400700004DFC031E00DA01335B101BB29AB2BB1D1B88D31A9BB21BB2984600F049FC031E00DA01335B101BB29AB2BB1D1B88D3189BB21BB2994600F031FC031E00DA0133CA
:400740005B101BB29AB2BB1D1B88D3189BB21CB200F02EFC031E00DA01335B101BB29AB2BB1D1B88D3189BB21BB201220292019300944B4642463100280001F01DFA00F0DE
:40078000EFF9C82002F0BCF8BB1D1B8805339AB2BB1D1A80BB1D00241C5F00F0FFFB03001D0000F005FC03009D4206DA00F0F6FB031E00DA01335B1005E000F0F9FB031EB9
:4007C00000DA01335B109C4200DA84E7BB1C00229B5E9BB201339AB2BB1C1A80BB1C00229B5E032B00DC6CE7264B180002F088F8012000F093F9FA239B00180002F080F80C
:40080000BB1D802252001A8010E0BB1D1B88DBB2180000F065F90A2002F072F8BB1D00229B5E9BB2013B9AB2BB1D1A80BB1D00229B5E002BE9DA002000F070F9FA239B0022
:40084000180002F05DF8BB1D00221A8010E0BB1D1B88DBB2180000F043F90A2002F050F8BB1D00229B5E9BB201339AB2BB1D1A80BB1D00229B5EFF2BE9DD024B180002F079
:400880003FF8ABE4B80B000080B58AB000AF0200FB1D1A700D4BFA1D12781A704021802000F02EFB0C23FA18094B100019001A231A0002F003FB0C23FB181A21180000F0C6
:4008C00009F8C046BD460AB080BDC046040500201434000080B584B000AF78600A00BB1C1A80FF23FB60134B1B781800BB1C1A887968002301F0F0FCC04601F085FD0200BA
:4009000002231340F9D001F07FFD020080239B00134008D101F06EFD0200BB1C1B889A4201D10023FB6001F091FDFB681800BD4604B080BD0405002090B583B000AF040057
:4009400008001100BB1D221C1A803B1D021C1A80BB1C0A1C1A80BB1D00229B5E002B00DAA1E0BB1D00229B5E7F2B00DD9BE03B1D00229B5E002B00DA95E03B1D00229B5E39
:400980003F2B00DD8FE0BB1C1B88012B04D0022B5CD0002B2CD087E0454B1A683B1D00215B5E002B00DA0733DB1018B20300DB011900BB1D00241B5FCB18D2183C4B1968A5
:4009C0000300DB011800BB1D00241B5FC318CB181B7859B23B1D1B881800072303400120984003005BB20B435BB2DBB213705BE02F4B1A683B1D00215B5E002B00DA073392
:400A0000DB1018B20300DB011900BB1D00241B5FCB18D218264B19680300DB011800BB1D00241B5FC318CB181B785BB2391D098808000721014001208840010049B2C943C0
:400A400049B20B405BB2DBB213702DE0184B1A683B1D00215B5E002B00DA0733DB1018B20300DB011900BB1D00241B5FCB18D2180F4B19680300DB011800BB1D00241B5F78
:400A8000C318CB181B7859B23B1D1B881800072303400120984003005BB24B405BB2DBB21370C04600E0C046BD4603B090BDC046D004002080B500AF064B1868064B1B8817
:400AC0001A00002102F003FA044B40221A70C046BD4680BDD0040020D4040020CC00002080B584B000AF0200FB1D1A700C23FB1800221A700C23FB1881225A700C23FB18D8
:400B0000FA1D12789A700C23FB1803211800FFF7E1FEC046BD4604B080BDC04680B584B000AF0200FB1D1A700C23FB1800221A700C23FB1800225A70FB1D1B78002B01D038
:400B4000A72200E0A6220C23FB185A700C23FB1802211800FFF7BEFEC046BD4604B080BD80B582B000AF3A000A4B1000190007231A0002F0A3F93B0007211800FFF7AAFE16
:400B8000054A064B11001800FFF7A4FEC046BD4602B080BD3034000001040000CC000020B0B58CB000AF05000C0010001900BB1D2A1C1A803B1D221C1A80BB1C021C1A8086
:400BC0003B000A1C1A80BA1DBB1C0021525E00215B5E9A4200D0D5E09B4B1A683B1D00215B5E002B00DA0733DB101BB2DB011900BB1D00201B5ECB18D3183B62924B1A687F
:400C00003B0000215B5E002B00DA0733DB101BB2DB011900BB1C00201B5ECB18D318FB613B6AFB62A8E0FA6A3B6A9A423AD13B1D00229B5E854A134004D5013B0822524237
:400C4000134301331AB21B23FB181A703B001B88DAB21B23FB181B78D318D9B23B1D1B88DAB22A23FB188A1A1A702A23FB181B78062B03D92A23FB1807221A702A23FB18F7
:400C80001A781B23FB181B78D31A013301229A4013005A1E1B23FB181B789A402B23FB181A7017E0FA6AFB699A4213D13B0000229B5E664A134004D5013B0822524213436B
:400CC00001331BB21A0001239340DAB22B23FB18013A1A70FA6A3B6A9A4203D0FA6AFB699A422DD14023FB181B88012B04D0022B1BD0002B0AD03CE0FB6A1A782B23FB182C
:400D00001B781343DAB2FB6A1A7018E0FB6A1B785BB22B22BA18127852B2D24352B213405BB2DAB2FB6A1A7009E0FB6A1A782B23FB181B785340DAB2FB6A1A70C04618E0D1
:400D40004023FB181B88012B04D0022B0AD0002B04D00EE0FB6AFF221A700AE0FB6A00221A7006E0FB6A1B78DB43DAB2FB6A1A70C046FB6A8033FB62FA6AFB699A4200D8ED
:400D800051E75CE0304B1A683B1D00215B5E002B00DA0733DB101BB2DB011900BB1D00201B5ECB18D3187B61BB1C00229A5EBB1D00215B5ED31A7A69D3183B613B1D1B8894
:400DC0001A000723134001229A400F23FB181A707B697B622FE04023FB181B88012B04D0022B1BD0002B0AD022E07B6A1A780F23FB181B781343DAB27B6A1A7018E07B6A0B
:400E00001B785BB20F22BA18127852B2D24352B213405BB2DAB27B6A1A7009E07B6A1A780F23FB181B785340DAB27B6A1A70C0467B6A01337B627A6A3B699A42CBD9C0463D
:400E4000BD460CB0B0BDC046D00400200700008080B582B000AF3B1D00221A703B1D2E225A703B1D02211800FFF734FDC046BD4602B080BDB0B586B000AF05000C0010001C
:400E80001900FB1D2A1C1A70BB1D221C1A707B1D021C1A703B1D0A1C1A700C23FB1800221A700C23FB187A1D12785A700C23FB1800229A700C23FB18FA1D1278DA700C2364
:400EC000FB183A1D12781A710C23FB18BA1D12785A710C23FB1800229A710C23FB18FF22DA710C23FB182F221A720C23FB1809211800FFF7EFFCC046BD4606B0B0BDC04632
:400F000080B582B000AF0200BB1D1A803B1D0A1C1A80174BBA1D12881A80164B3A1D12881A80134B00229A5E134B1A80114B00229A5E124B1A80124B00221A70114B002252
:400F40001A80104B00229A5E0F4B1A800F4B01221A700F4B012252421A800D4B1A880D4B1A800D4B01221A70C046BD4602B080BD1C050020200500200605002008050020F5
:400F80001E0500200A0500200C05002012050020100500200E0500202205002080B500AF024B00229B5E1800BD4680BD0605002080B500AF024B00229B5E1800BD4680BD35
:400FC0000805002080B582B000AF0200BB1D1A803B1D0A1C1A80064BBA1D12881A80054B3A1D12881A80C046BD4602B080BDC0460A0500200C05002080B582B000AF020075
:40100000FB1D1A70FB1D1B78002B02D0FB1D1A7800E00122024B1A70C046BD4602B080BD1205002080B582B000AF0200BB1D1A80054BBA1D12881A80034B1A88034B1A80F6
:40104000C046BD4602B080BD100500200E05002080B582B000AF0200FB1D1A70FB1D1B7803221340DAB2144B1A70134B1B78012B13D002DC002B05D01AE0022B02D0032BB9
:401080000BD015E00D4B00229A5E0D4B1A800D4B00229A5E0C4B1A800AE00A4B00229A5E074B1A80054B00229A5E074B1A80C046C046BD4602B080BD1E0500201C0500207C
:4010C00006050020200500200805002080B584B000AF786039600E23FB183A6812881A802A4B1B78022B18D0032B35D0012B00D047E07B6800229A5E3B681A80244B002272
:401100009B5E9AB20E23FB181B88D31A9BB2013B9BB21AB27B681A8033E01D4B00229B5E9AB27B6800215B5E9BB2D31A9BB2013B9BB21AB27B681A80164B00229B5E9AB2B7
:401140003B6800215B5E9BB2D31A9BB2013B9BB21AB23B681A8014E00E4B00229B5E9AB27B6800215B5E9BB2D31A9BB2013B9BB21AB23B681A807B680E22BA1812881A8036
:40118000C046C046BD4604B080BDC0461E0500201C0500202005002090B583B000AF040008001100BB1D221C1A803B1D021C1A80BB1C0A1C1A80BB1D00229B5E002B26DBA6
:4011C000BB1D00229A5E144B00215B5E9A421EDA3B1D00229B5E002B19DB3B1D00229A5E0E4B00215B5E9A4211DA3A1DBB1D11001800FFF76BFFBB1D0020185E3B1D002153
:40120000595EBB1C1B881A00FFF796FB00E0C046BD4603B090BDC0460605002008050020B0B586B002AF05000C0010001900BB1D2A1C1A803B1D221C1A80BB1C021C1A8098
:401240003B000A1C1A80BB1D00229A5EBB1C00215B5E9A4208D03B1D00229A5E3B0000215B5E9A4200D0DEE0754B1B78012B03D0734B1B78032B3BD1BB1D00229B5E002B30
:4012800000DAD2E0BB1D00229A5E6E4B00215B5E9A4200DBC9E0BB1C00229B5E002B00DAC3E0BB1C00229A5E664B00215B5E9A4200DBBAE03B1D00229B5E002B00DAB6E048
:4012C0003B1D00229A5E604B00215B5E9A4200DBADE03B0000229B5E002B00DAA7E03B0000229A5E584B00215B5E9A423CDB9EE03B1D00229B5E002B00DA9AE03B1D002222
:401300009A5E504B00215B5E9A4200DB91E03B0000229B5E002B00DA8BE03B0000229A5E484B00215B5E9A4200DB82E0BB1D00229B5E002B00DA7EE0BB1D00229A5E424BA2
:4013400000215B5E9A4200DB75E0BB1C00229B5E002B00DA6FE0BB1C00229A5E3A4B00215B5E9A4267DA00E0C0463A1DBB1D11001800FFF7ABFE3A00BB1C11001800FFF7C7
:40138000A5FEBB1D00229A5EBB1C00215B5E9A4207D13B0000229A5E3B1D00215B5E9A420FDB3B1D00229A5E3B0000215B5E9A4225D1BB1C00229A5EBB1D00215B5E9A420E
:4013C0001DDA0E23FB18BA1D12881A80BB1C00229A5EBB1D1A80BB1C0E22BA1812881A800E23FB183A1D12881A803B0000229A5E3B1D1A803B000E22BA1812881A80BB1DD8
:401400000020185E3B1D0021595EBB1C00229A5E3B0000241C5F2023FB181B8800932300FFF7BEFB08E0C04606E0C04604E0C04602E0C04600E0C046BD4604B0B0BDC04601
:401440001E050020200500201C050020B0B588B002AF05000C0010001900BB1D2A1C1A803B1D221C1A80BB1C021C1A803B000A1C1A80BA1DBB1C0021525E00215B5E9A4274
:4014800007D03A1D3B000021525E00215B5E9A4213D13B0000241C5FBB1C00229A5E3B1D0021595EBB1D0020185E2823FB181B8800932300FFF7B4FEEAE03B0000229A5E71
:4014C0003B1D00215B5ED31AD9175A184A40BB1C0021595EBB1D00201B5ECB1AD9175B184B4001219A4201DC0023191CCAB21223FB181A801223FB1800229B5E002B1BD0E4
:401500001023FB18BA1D12881A80BB1D3A1D12881A803B1D1022BA1812881A801023FB18BA1C12881A80BB1C3A0012881A803B001022BA1812881A80BA1DBB1C0021525EE0
:4015400000215B5E9A421BDD1023FB18BA1D12881A80BB1DBA1C12881A80BB1C1022BA1812881A801023FB183A1D12881A803B1D3A0012881A803B001022BA1812881A8071
:40158000BB1C1A88BB1D1B88D31A9AB20E23FB181A803B0000229A5E3B1D00215B5ED31AD9175A184A400C23FB181A801623FA180E23FB1800215B5E002B00DA01335B10D7
:4015C00013803A1D3B000021525E00215B5E9A4204DA1423FB1801221A8051E01423FB18012252421A804BE01223FB1800229B5E002B0CD02823FB181A88BB1D0021595E49
:401600003B1D00201B5E1800FFF7C6FD0BE02823FB181A883B1D0021595EBB1D00201B5E1800FFF7B9FD1623FB181A880C23FB181B88D31A9AB21623FB181A801623FB185A
:4016400000229B5E002B13DA3B1D1A881423FB181B88D3189AB23B1D1A801623FB181A880E23FB181B88D3189AB21623FB181A80BB1D00229B5E9BB201339AB2BB1D1A8003
:40168000BA1DBB1C0021525E00215B5E9A42ABDDBD4606B0B0BDC046B0B584B002AF05000C0010001900BB1D2A1C1A803B1D221C1A80BB1C021C1A803B000A1C1A80BB1D73
:4016C0001A88BB1C1B88D3189BB2013B9BB21AB23B1D00241C5F3B1D0021595EBB1D0020185E1823FB181B8800932300FFF7AEFE3B1D1A883B001B88D3189BB2013B9BB2CA
:4017000019B2BB1D1A88BB1C1B88D3189BB2013B9BB21CB23B1D1A883B001B88D3189BB2013B9BB21AB2BB1D0020185E1823FB181B88009313002200FFF788FE3B1D1A8859
:401740003B001B88D3189BB2013B9BB21CB2BB1D00229A5E3B1D0021595EBB1D0020185E1823FB181B8800932300FFF76FFEBB1D1A88BB1C1B88D3189BB2013B9BB218B2E3
:40178000BB1D1A88BB1C1B88D3189BB2013B9BB21CB23B1D1A883B001B88D3189BB2013B9BB21AB23B1D0021595E1823FB181B88009313002200FFF749FEC046BD4602B060
:4017C000B0BDC046B0B586B002AF05000C0010001900BB1D2A1C1A803B1D221C1A80BB1C021C1A803B000A1C1A800E23FB1800221A803A00BB1C0021525E00215B5E9A42E6
:4018000038DD0E23FB18BA1D12881A8024E03B1D1A883B001B88D3189BB2013B9BB21CB20E23FB1800229A5E3B1D0021595E0E23FB180020185E2023FB181B8800932300C2
:40184000FFF704FE0E23FB1800229B5E9BB201339AB20E23FB181A800E23FB1800229A5EBB1D0021595EBB1C00201B5ECB189A42CDDB37E00E23FB183A1D12881A8024E097
:40188000BB1D1A88BB1C1B88D3189BB2013B9BB21AB20E23FB1800241C5F0E23FB180021595EBB1D0020185E2023FB181B8800932300FFF7CBFD0E23FB1800229B5E9BB221
:4018C00001339AB20E23FB181A800E23FB1800229A5E3B1D0021595E3B0000201B5ECB189A42CDDBC046BD4604B0B0BDB0B586B000AF05000C0010001900BB1D2A1C1A805B
:401900003B1D221C1A80BB1C021C1A803B000A1C1A80BB1C1B880122D31A9AB21623FB181A801423FB1801221A80BB1C1B881A1CD203D31ADB189AB21223FB181A80102364
:40194000FB1800221A800E23FB18BA1C12881A803B1D1A88BB1C1B88D3189BB219B23B001A88BB1D00201B5E1800FFF715FC3B1D1A88BB1C1B88D31A9BB219B23B001A8810
:40198000BB1D00201B5E1800FFF706FCBB1D1A88BB1C1B88D3189BB218B23B001A883B1D00215B5E1900FFF7F7FBBB1D1A88BB1C1B88D31A9BB218B23B001A883B1D002152
:4019C0005B5E1900FFF7E8FBE7E01623FB1800229B5E002B1CDB0E23FB1800229B5E9BB2013B9AB20E23FB181A801223FB181B8802339AB21223FB181A801623FB181A889E
:401A00001223FB181B88D3189AB21623FB181A801023FB1800229B5E9BB201339AB21023FB181A801423FB181B8802339AB21423FB181A801623FB181A881423FB181B8863
:401A4000D3189AB21623FB181A80BB1D1A881023FB181B88D3189BB218B23B1D1A880E23FB181B88D3189BB219B23B001B881A00FFF792FBBB1D1A881023FB181B88D31A35
:401A80009BB218B23B1D1A880E23FB181B88D3189BB219B23B001B881A00FFF77DFBBB1D1A881023FB181B88D3189BB218B23B1D1A880E23FB181B88D31A9BB219B23B003F
:401AC0001B881A00FFF768FBBB1D1A881023FB181B88D31A9BB218B23B1D1A880E23FB181B88D31A9BB219B23B001B881A00FFF753FBBB1D1A880E23FB181B88D3189BB2AE
:401B000018B23B1D1A881023FB181B88D3189BB219B23B001B881A00FFF73EFBBB1D1A880E23FB181B88D31A9BB218B23B1D1A881023FB181B88D3189BB219B23B001B88A5
:401B40001A00FFF729FBBB1D1A880E23FB181B88D3189BB218B23B1D1A881023FB181B88D31A9BB219B23B001B881A00FFF714FBBB1D1A880E23FB181B88D31A9BB218B284
:401B80003B1D1A881023FB181B88D31A9BB219B23B001B881A00FFF7FFFA1023FA180E23FB180021525E00215B5E9A4200DA0CE7C046BD4606B0B0BDB0B584B002AF0500FE
:401BC0000C0010001900BB1D2A1C1A803B1D221C1A80BB1C021C1A803B000A1C1A803B0000241C5FBB1C00229A5E3B1D0021595EBB1D0020185E2023FB181B880093230026
:401C0000FFF724FC1C23FB1800241C5F1823FB1800229A5E3B000021595EBB1C0020185E2023FB181B8800932300FFF70FFC3B1D00241C5FBB1D00229A5E1C23FB180021A9
:401C4000595E1823FB180020185E2023FB181B8800932300FFF7FAFBC046BD4602B0B0BDB0B586B002AF05000C0010001900BB1D2A1C1A803B1D221C1A80FB1C021C1A70DA
:401C80003B000A1C1A80984B00229B5EBA1D0021525E9A4200DB23E1944B00229B5E3A1D0021525E9A4200DB1AE1BB1D0021595E2423FB181A7813005B009B185B00CB18F9
:401CC000013B002B00DA0BE13B1D00229A5E2423FB181B78DB00D318013B002B00DAFFE00F23FB1800221A700F23FB1800221A70EEE00F23FB181B785BB2052B04D10E23A7
:401D0000FB1800221A700EE0FB1C1A7813009B009A180F23FB181B785BB2D2180E23FB1873498A5C1A700D23FB1800221A700D23FB1800221A70BAE00E23FB181B7801223C
:401D400013404DD02423FB181B78012B19D10F23FB181B785BB29AB2BB1D1B88D3189BB218B20D23FB181B785BB29AB23B1D1B88D3189BB219B23B001B881A00FFF70CFA21
:401D800084E00F23FB181B785BB29BB22422BA18127892B253439AB2BB1D1B88D3189BB218B20D23FB181B785BB29BB22422BA18127892B253439AB23B1D1B88D3189BB21D
:401DC00019B22423FB181B781AB22423FB181B781CB23B001B8800932300FFF7F3FC55E02023FA183B0012881B889A424ED02423FB181B78012B1AD10F23FB181B785BB246
:401E00009AB2BB1D1B88D3189BB218B20D23FB181B785BB29AB23B1D1B88D3189BB21BB22022BA1812881900FFF7B6F92EE00F23FB181B785BB29BB22422BA18127892B218
:401E400053439AB2BB1D1B88D3189BB218B20D23FB181B785BB29BB22422BA18127892B253439AB23B1D1B88D3189BB219B22423FB181B781AB22423FB181B781CB2202356
:401E8000FB181B8800932300FFF79CFC0E23FB180E22BA18127852081A700D23FB181B785BB2DBB20133DAB20D23FB181A700D23FB181B785BB2072B00DC3DE70F23FB181D
:401EC0001B785BB2DBB20133DAB20F23FB181A700F23FB181B785BB2052B00DC09E700E0C046BD4604B0B0BD0605002008050020182F0000B0B584B002AF0200FB1D1A70AE
:401F0000FB1D1B780A2B11D1334B1B789BB2DB009AB2324B00215B5E9BB2D3189BB21AB22E4B1A802E4B00221A8051E0FB1D1B780D2B4DD02A4B0020185E284B00241C5F1C
:401F4000284B1D88284B1B88234A1278F91D0978019200932B000A002100FFF781FE1E4B1B789BB21A1C131CDB189B18DB189AB21B4B00215B5E9BB2D3189BB21AB2184B2D
:401F80001A801A4B1B78002B22D0154B00229B5E1900174B00229B5E18000F4B1B781A00130092009B1A5B00C318994210DD0A4B1B789BB2DB009AB2084B00215B5E9BB214
:401FC000D3189BB21AB2054B1A80054B00221A80C046BD4602B0B0BD120500200C0500200A0500200E05002010050020220500200605002080B584B000AF78607B68180063
:4020000000F06DFF0300BB600023FB600023FB6009E07A68FB68D3181B781800FFF76AFFFB680133FB60FA68BB689A42F1D3C046BD4604B080BDC04680B582B000AF786002
:402040007B681800FFF7D6FF0A20FFF753FFC046BD4602B080BDC04680B582B000AF786039603A687B680021180000F030FFC046BD4602B080BDC04680B500AFC046BD46DB
:4020800080BDC04680B500AFFEE7C04680B586B000AF224B7B61224B3B61204B7B6135E03B691B68FB603B695B68BB603B699B683B6000237B600CE0FB681A68BB681A6094
:4020C000BB680433BB60FB680433FB607B6804337B607A683B689A42EED13B69DB683B6000237B6008E0BB6800221A60BB680433BB607B6804337B607A683B689A42F2D1AC
:402100003B6910333B617B69013B7B617B69002BC6D100F0ADFEFEF755F8FEE7010000009834000080B582B000AF00237B600FE07B68032B04D8104B7A689200D35800E021
:402140000E4B0F4A796889008B507B6801337B607B682F2BECD9FDF799FF0A4B00221A608023DB058022D205126801210A431A60C046BD4602B080BD0000000085200000FB
:4021800000000020C000002080B500AF00F02EF8C046BD4680BDC04680B500AF054B054A1268802109060A431A6000F017F8C046BD4680BD0000074080B500AF064B1B7811
:4021C000002B04D1FFF7E0FF034B01221A70FFF7E3FFC046BD4680BD1405002080B500AF0B2000F055FBC046BD4680BD80B500AF244B244A12680C210A431A60224B002265
:402200001A60224B224A1A60224B234A1A60234B00221A60224B00221A60224B1E4A1A60214B00221A600B2000F048FB03210B2000F0DAFA1D4B19000B2000F0AFFA1C4BF6
:4022400000221A601B4B00221A601B4B00221A601A4B1422FF321A60194B00221A60194B00221A60184B10221A70184B00221A80174B00221A60174B00221A60C046BD4635
:4022800080BDC046700007400000074060000740C70800800003074007010080040307401003074000020740040207409D290000C80E0740880E0740480F0740080F07401B
:4022C000C80F0740880F074023050020240500202C0500203005002080B586B000AFF860B9607A603B6004237B61BB68002B20D0324B1B78DBB2102B0CD10B2000F0DEFAC2
:402300002F4B1B680122134001D0082300E000237B610EE0294B1B78DBB2602B09D1294B1B889BB2082293439AB2264B1A8000237B617B69002B38D1204B28221A70224BEA
:4023400000221A60214B00221A60214B7A681A60204BBA681A603B68DAB21F4B1A70FB685B00FF221340FB60164B1B889BB2022293439AB2134B1A80184B194A1A60194B07
:4023800040221A603B680122134005D000F076F8154BFA681A6005E0134BFA681A60134B02221A60124B40221A600B2000F070FA7B691800BD4606B080BDC04623050020A0
:4023C00064000740240500202805002030050020380500203C05002026050020000F074017030000800F07404002074068000740880F074080B500AF024B1B681800BD4613
:4024000080BDC0463005002080B582B000AF0B2000F054FA0B4B1B889BB27B600A4B1B78DBB220221340DBB2002B03D07B68042213437B600B2000F02BFA7B681800BD4657
:4024400002B080BD240500202305002080B582B000AF0B2000F032FA074B1B889BB27B60054B00221A800B2000F012FA7B681800BD4602B080BDC0462405002080B582B08C
:4024800000AF264B1B687B60C04600F051F8031EFBD0002000F05AF8214B214A126821490A401A60204B204A1268520052081A607B682022134010D0002000F047F8032053
:4024C00000F044FA012000F041F8C04600F066F8031EFBD0032000F039FA002000F036F8032000F033FA114B01221A600E4B0E4A1268802109060A431A60094B084A1268A5
:4025000008490A40E02109030A431A60012000F01DF8C046BD4602B080BDC0466400074000000140FFFFF0FF000007406800074080B500AF044B1B68202213405B09DBB2FD
:402540001800BD4680BDC0460400044080B584B000AF0200FB1D1A700F4B1B68DAB20F23FB1810218A431A70FB1D1B781B01DBB210221340D9B20F23FB180F22BA1812788D
:402580000A431A70044B0F22BA1812781A60C046BD4604B080BDC0460000044080B500AF044B1B68102213401B09DBB21800BD4680BDC0460400044090B585B000AF786017
:4025C0007B68022B00D8BBE07B68302B00D9B7E05F4B1B78DBB21A007B689A420AD35D4A0F23FB1812781A705B4A0E23FB1812781A703FE0594B1B78DBB21A007B689A4271
:402600000AD3574A0F23FB1812781A70554A0E23FB1812781A702DE0534B1B78DBB21A007B689A420AD3514A0F23FB1812781A704F4A0E23FB1812781A701BE04D4B1B7840
:40264000DBB21A007B689A420AD34B4A0F23FB1812781A70494A0E23FB1812781A7009E0474A0F23FB1812781A70464A0E23FB1812781A707B68DA1E0C23FB1842498A5CF5
:402680001A700B23FC1800F081F9030023700C23FB181B782F2B0DD97B682A2B0AD93B4B19221A60052000F067F90D23FB1819221A7007E0354B1B68DAB20D23FB183F214D
:4026C0000A401A700C23FA180D23FB1812781B789A4208D22D4B7A68033A2B498A5C1A60052000F049F92A4B7A6826498C4662441278D2B21A60274B0F22BA1812781A60AE
:40270000254B0E22BA1812781A60052000F01EF90C23FA180D23FB1812781B789A4208D91A4B7A68033A18498A5C1A60052000F023F90B23FB181B78180000F02BF902E041
:40274000002000F0D1F8C046BD4605B090BDC046C0F1FF0FC1F1FF0FC2F1FF0FC3F1FF0FC4F1FF0FC5F1FF0FC6F1FF0FC7F1FF0FC8F1FF0FC9F1FF0FCAF1FF0FCBF1FF0F39
:40278000CCF1FF0FCDF1FF0F443400002CFF0B4028FF0B401CFF0B4020FF0B4080B584B000AF02003960FB1D1A7080239B05FB60FB1D1B781F2B02D9002000F095F8FB1DDA
:4027C0001B7810339B00FA68D3181B68BB60FB1D1B7810339B00FA68D3183A681A60BB681800BD4604B080BD90B587B000AF0200FB1D1A70BB1D0A1C1A70BB1D1B78032B6C
:4028000002D9002000F070F8FB1D1B781F2B02D9002000F069F8FB1D1B7803221340DB0006337B611323FC1800F0B0F803002370FB1D1B789B08DBB29B00144A9446634424
:402840001B68FB6003227B699A401300DA43FB681340FB60BB1D1A787B699A401300FA681343FB60FB1D1B789B08DBB29B00074A94466344FA681A601323FB181B781800F0
:4028800000F088F8C046BD4607B090BD00E400E080B582B000AF0200FB1D1A70064BFA1D12781F210A40012191400A001A60C046BD4602B080BDC04600E100E080B582B004
:4028C00000AF0200FB1D1A70064BFA1D12781F210A40012191400A001A60C046BD4602B080BDC04680E100E080B582B000AF0200FB1D1A7001BEC046BD4602B080BDC046DC
:4029000080B582B000AF786009E00D4B1B68180000F032F87B680B4A944663447B607A6880231B029A42F0D8074B1B687A685343180000F021F8C046BD4602B080BDC0466D
:40294000E40400200080FFFFDC04002080B582B000AF0200BB1D1A80BB1D1B88044A12785343180000F008F8C046BD4602B080BDE0040020000000000230800804D0C046C6
:402980000138FDD1C046C046C0467047EFF3108072B6704780F310887047C04680B582B000AF00233B60BE4B1B68002B02D0BC4B1B689847BB4B1B680122134002D0BA4B92
:4029C00000221A60B94B1B78DBB220221340DBB2002B38D0B64B1A6880235B0013400AD0B44B1B889BB2C022920013439AB2B14B1A8001233B60AE4B1B68012213400AD0EE
:402A0000AC4B1B889BB29022920013439AB2A94B1A8001233B603B68002B14D0A34B1B78DBB201221340DBB2002B01D0012300E00223A04A128892B213439AB29D4B1A80A8
:402A40009A4B00221A70994B1B78DBB220221340DBB2002B00D1A2E1954B1B681022134018D0954B10221A60904B1B78DBB201221340DBB2002B01D0012300E002238D4ACA
:402A8000128892B213439AB28A4B1A80874B10221A70BAE1854B1B78DBB208221340DBB2002B29D0824B1B68022213400ED0824B02221A607F4B1B889BB288229200134384
:402AC0009AB27C4B1A8001233B6015E0774B1B78DBB201221340DBB2002B03D0734B25221A7009E0714B24221A70744B1B68002B02D0734B10221A606C4B1B78DBB20422E8
:402B00001340DBB2002B00D111E1684B1B78DBB201221340DBB2002B5BD06A4B1B680822134033D0684B1A68684B1B680F211940674B1B68CB18D31A7B607B68082B02D91E
:402B400008237B601EE07B68002B1BD1614B614A126861490A401A6008237B6001233B6010E05E4B1A685A4B1B68D2185C4B1B68DBB21370564B1B685A1C554B1A607B6855
:402B8000013B7B607B68002BEBD11EE04D4B1B680422134019D0514B1A684D4B1B68D2184F4B1B68DBB21370494B1B685A1C484B1A60474B1A68444B1B689A4203D2494B64
:402BC00004221A6001E001233B60474B474A1A60ADE0374B1B680222134032D0364B02221A60434B1B680F221A40414B196880231B020B4001D0012300E00023D2183D4BB0
:402C00001B689A1A3B4B1A603A4B1A683A4B1A60284B1B889BB28422920013439AB2254B1A80364B354A1268802149020A431A60324B324A126832490A401A6001233B6072
:402C400075E0304B1B681022134065D013E0294B1A681A4B1B689A4214D22B4A2B4B1968244B1B68CB181B78DBB21360214B1B685A1C204B1A601E4B1B680F221340082BF3
:402C8000E5D100E0C0461B4B1A680C4B1B689A4202D10B4B40221A601D4B1E4A1A6046E0180500208C0E0740880E0740230500200C0F074024050020000F074038050020C4
:402CC000880F0740CC0F074040050020080307402C05002060000740FFFEFFFF340500204003074068000740C00F0740ED0F00000802074028050020300500200402074046
:402D0000FFFFFEFF8C0F0740400207403C050020800F0740F30700003E4B1B684022134005D03D4B1A683D4B1A6001233B603B68002B6AD03A4B3A4A12683A490A401A60C9
:402D4000394B00221A60394B00221A60384B1B78DBB202221340DBB2002B15D0354B1B78DBB201221340DBB2002B01D0092300E00A23314A128892B213439AB22E4B1A8076
:402D80002C4B60221A7040E02C4B2D4A126820210A4001D0182200E010221A6035E0254B1B78DBB210221340DBB2002B2DD1254B244A1268520052081A601E4B10221A7063
:402DC000174B174A126820490A401A60144B144A12681E490A401A60134B00221A60134B00221A601A4B1B4A1A601B4B1B4A1A601B4B1C4A1A601C4B1C4A1A60114B114A46
:402E00001268802109060A431A60C046BD4602B080BDC0468C0F0740280500203005002060000740FFFEFFFFC80F0740880F074026050020230500202405002068000740F6
:402E40006400074000000740FF5FFFFFFFFCFFFF800F0740ED0F0000C00F0740F3070000400F0740FF0F0000000F0740170300000E4B70B500251E000D4CE41AA410A54262
:402E800004D0AB00F35898470135F8E700F0F2FA084B00251E00084CE41AA410A54204D0AB00F35898470135F8E770BD80340000803400008034000088340000002310B54A
:402EC0009A4203D0CC5CC4540133F9E710BD03008218934202D019700133FAE770470023C25C0133002AFBD1581E70470000000074657374206C696E652031202E2E2E004E
:402F0000326E64206C696E65202E2E2E000000007363726F6C6C000000000000003E5B4F5B3E3E6B4F6B3E1C3E7C3E1C183C7E3C181C577D571C1C5E7F5E1C00183C1800D2
:402F4000FFE7C3E7FF0018241800FFE7DBE7FF30483A060E2629792926407F050507407F05253F5A3CE73C5A7F3E1C1C08081C1C3E7F14227F22145F5F005F5F06097F01EF
:402F80007F006689956A606060606094A2FFA29408047E040810207E201008082A1C08081C2A08081E101010100C1E0C1E0C30383E3830060E3E0E06000000000000005F98
:402FC00000000007000700147F147F14242A7F2A12231308646236495620500008070300001C2241000041221C002A1C7F1C2A08083E080800807030000808080808000076
:4030000060600020100804023E5149453E00427F400072494949462141494D331814127F1027454545393C4A49493141211109073649494936464949291E00001400000036
:403040004034000000081422411414141414004122140802015909063E415D594E7C1211127C7F494949363E414141227F4141413E7F494949417F090909013E4141517372
:403080007F0808087F00417F41002040413F017F081422417F404040407F021C027F7F0408107F3E4141413E7F090909063E4151215E7F09192946264949493203017F016E
:4030C000033F4040403F1F2040201F3F4038403F631408146303047804036159494D43007F4141410204081020004141417F040201020440404040400003070800205454A3
:4031000078407F284444383844444428384444287F385454541800087E090218A4A49C787F0804047800447D40002040403D007F1028440000417F40007C047804787C08B4
:403140000404783844444438FC1824241818242418FC7C08040408485454542404043F44243C4040207C1C2040201C3C4030403C44281028444C9090907C4464544C4400DC
:40318000083641000000770000004136080002010204023C2623263C1EA1A161123A4040207A385454555921555579412254547842215554784020545579400C1E527212E6
:4031C0003955555559395454545939555454580000457C410002457D420001457C407D1211127DF0282528F07C545545002054547C547C0A097F4932494949323A444444F6
:403200003A324A4848303A4141217A3A42402078009DA0A07D3D4242423D3D4040403D3C24FF2424487E4943662B2FFC2F2BFF0929F620C0887E09032054547941000044AB
:403240007D413048484A32384040227A007A0A0A727D0D19317D2629292F28262929292630484D4020380808080808080808382F10C8ACBA2F102834FA00007B00000814AB
:403280002A142222142A1408AA005500AAAA55AA55AA000000FF00101010FF00141414FF001010FF00FF1010F010F0141414FC001414F700FF0000FF00FF1414F404FC14C6
:4032C0001417101F10101F101F1414141F00101010F0000000001F101010101F10101010F010000000FF101010101010101010FF10000000FF140000FF00FF00001F1017D8
:403300000000FC04F414141710171414F404F40000FF00F714141414141414F700F7141414171410101F101F141414F4141010F010F000001F101F0000001F14000000FC09
:40334000140000F010F01010FF10FF141414FF141010101F00000000F010FFFFFFFFFFF0F0F0F0F0FFFFFF0000000000FFFF0F0F0F0F0F3844443844FC4A4A4A347E0202C0
:403380000606027E027E0263554941633844443C04407E201E2006027E020299A5E7A5991C2A492A1C4C7201724C304A4D4D303048784830BC625A463D3E494949007E01C0
:4033C00001017E2A2A2A2A2A44445F444440514A444040444A51400000FF0103E080FF000008086B6B083612362436060F090F06000018180000001010003040FF01010032
:403400001F01011E00191D1712003C3C3C3C00000000000000AED580A83FD300408D142000A1C8DA1281CFD9F1DB40A4A6AF00000021007F2200070000300F400004004031
:403440000F400004030405060708090A0B0C0E0F101112131415161718191B1C1D1E1F2021222325262728292A2B2E2F3031323334350000F8B5C046F8BC08BC9E46704743
:403480008D01000025210000F8B5C046F8BC08BC9E46704765010000A8340000C8000020200400006000000000000000400000000000000000000000000000000000000084
:4034C00000000000000000000000000000000000000000000000000000000000000000000000000000000000000000000000000000000000000000000000000000000000CC
:40350000000000000000000000000000000000000000000000000000000000000000000000000000000000000000000000000000000000000000000000000000000000008B
:40354000000000000000000000000000000000000000000000000000000000000000000000000000000000000000000000000000000000000000000000000000000000004B
:40358000000000000000000000000000000000000000000000000000000000000000000000000000000000000000000000000000000000000000000000000000000000000B
:4035C00000000000000000000000000000000000000000000000000000000000000000000000000000000000000000000000000000000000000000000000000000000000CB
:40360000000000000000000000000000000000000000000000000000000000000000000000000000000000000000000000000000000000000000000000000000000000008A
:40364000000000000000000000000000000000000000000000000000000000000000000000000000000000000000000000000000000000000000000000000000000000004A
:40368000000000000000000000000000000000000000000000000000000000000000000000000000000000000000000000000000000000000000000000000000000000000A
:4036C00000000000000000000000000000000000000000000000000000000000000000000000000000000000000000000000000000000000000000000000000000000000CA
:403700000000000000000000000000000000000000000000000000000000000000000000000000000000000000000000000000000000000000000000000000000000000089
:403740000000000000000000000000000000000000000000000000000000000000000000000000000000000000000000000000000000000000000000000000000000000049
:403780000000000000000000000000000000000000000000000000000000000000000000000000000000000000000000000000000000000000000000000000000000000009
:4037C00000000000000000000000000000000000000000000000000000000000000000000000000000000000000000000000000000000000000000000000000000000000C9
:403800000000000000000000000000000000000000000000000000000000000000000000000000000000000000000000000000000000000000000000000000000000000088
:403840000000000000000000000000000000000000000000000000000000000000000000000000000000000000000000000000000000000000000000000000000000000048
:40388000000000000000000000000000000000000000000000000000000000000000000000000000000000000000000000000000CD0000200004000000366E01C05D000055
:4038C000180000000000E02E0000000000000000000000000000000000000000000000000000000000000000000000000000000000000000000000000000000000000000A2
:403900000000000000000000000000000000000000000000000000000000000000000000000000000000000000000000000000000000000000000000000000000000000087
:403940000000000000000000000000000000000000000000000000000000000000000000000000000000000000000000000000000000000000000000000000000000000047
:403980000000000000000000000000000000000000000000000000000000000000000000000000000000000000000000000000000000000000000000000000000000000007
:4039C00000000000000000000000000000000000000000000000000000000000000000000000000000000000000000000000000000000000000000000000000000000000C7
:0200000490303A
:0200000056ADFB
:0200000490402A
:200000000000000000000000000000000000000000000000000000000000000000000000E0
:0200000490501A
:0C000000000204C81193110104D96840EB
:0200000490600A
:0100000001FE
:00000001FF